{
  "_format": "hh-sol-artifact-1",
  "contractName": "IssuerRegistry",
  "sourceName": "contracts/IssuerRegistry.sol",
  "abi": [
    {
      "inputs": [],
      "stateMutability": "nonpayable",
      "type": "constructor"
    },
    {
      "anonymous": false,
      "inputs": [
        {
          "indexed": true,
          "internalType": "address",
          "name": "admin",
          "type": "address"
        }
      ],
      "name": "AdminAdded",
      "type": "event"
    },
    {
      "anonymous": false,
      "inputs": [
        {
          "indexed": true,
          "internalType": "address",
          "name": "admin",
          "type": "address"
        }
      ],
      "name": "AdminRemoved",
      "type": "event"
    },
    {
      "anonymous": false,
      "inputs": [
        {
          "indexed": true,
          "internalType": "address",
          "name": "issuerAddress",
          "type": "address"
        },
        {
          "indexed": false,
          "internalType": "uint256",
          "name": "timestamp",
          "type": "uint256"
        }
      ],
      "name": "IssuerDeactivated",
      "type": "event"
    },
    {
      "anonymous": false,
      "inputs": [
        {
          "indexed": true,
          "internalType": "address",
          "name": "issuerAddress",
          "type": "address"
        },
        {
          "indexed": true,
          "internalType": "string",
          "name": "issuerDID",
          "type": "string"
        },
        {
          "indexed": false,
          "internalType": "string",
          "name": "name",
          "type": "string"
        },
        {
          "indexed": false,
          "internalType": "uint256",
          "name": "timestamp",
          "type": "uint256"
        }
      ],
      "name": "IssuerRegistered",
      "type": "event"
    },
    {
      "anonymous": false,
      "inputs": [
        {
          "indexed": true,
          "internalType": "address",
          "name": "issuerAddress",
          "type": "address"
        },
        {
          "indexed": false,
          "internalType": "string",
          "name": "name",
          "type": "string"
        },
        {
          "indexed": false,
          "internalType": "bool",
          "name": "isActive",
          "type": "bool"
        },
        {
          "indexed": false,
          "internalType": "uint256",
          "name": "timestamp",
          "type": "uint256"
        }
      ],
      "name": "IssuerUpdated",
      "type": "event"
    },
    {
      "inputs": [
        {
          "internalType": "address",
          "name": "adminAddress",
          "type": "address"
        }
      ],
      "name": "addAdmin",
      "outputs": [],
      "stateMutability": "nonpayable",
      "type": "function"
    },
    {
      "inputs": [
        {
          "internalType": "address",
          "name": "",
          "type": "address"
        }
      ],
      "name": "admins",
      "outputs": [
        {
          "internalType": "bool",
          "name": "",
          "type": "bool"
        }
      ],
      "stateMutability": "view",
      "type": "function"
    },
    {
      "inputs": [
        {
          "internalType": "address",
          "name": "issuerAddress",
          "type": "address"
        }
      ],
      "name": "deactivateIssuer",
      "outputs": [],
      "stateMutability": "nonpayable",
      "type": "function"
    },
    {
      "inputs": [
        {
          "internalType": "string",
          "name": "",
          "type": "string"
        }
      ],
      "name": "didToAddress",
      "outputs": [
        {
          "internalType": "address",
          "name": "",
          "type": "address"
        }
      ],
      "stateMutability": "view",
      "type": "function"
    },
    {
      "inputs": [],
      "name": "getActiveIssuers",
      "outputs": [
        {
          "internalType": "address[]",
          "name": "activeIssuers",
          "type": "address[]"
        }
      ],
      "stateMutability": "view",
      "type": "function"
    },
    {
      "inputs": [
        {
          "internalType": "address",
          "name": "issuerAddress",
          "type": "address"
        }
      ],
      "name": "getIssuer",
      "outputs": [
        {
          "components": [
            {
              "internalType": "address",
              "name": "issuerAddress",
              "type": "address"
            },
            {
              "internalType": "string",
              "name": "issuerDID",
              "type": "string"
            },
            {
              "internalType": "string",
              "name": "name",
              "type": "string"
            },
            {
              "internalType": "string",
              "name": "domain",
              "type": "string"
            },
            {
              "internalType": "bool",
              "name": "isActive",
              "type": "bool"
            },
            {
              "internalType": "uint256",
              "name": "registrationDate",
              "type": "uint256"
            },
            {
              "internalType": "uint256",
              "name": "lastUpdated",
              "type": "uint256"
            },
            {
              "internalType": "string",
              "name": "metadataURI",
              "type": "string"
            }
          ],
          "internalType": "struct IssuerRegistry.Issuer",
          "name": "issuer",
          "type": "tuple"
        }
      ],
      "stateMutability": "view",
      "type": "function"
    },
    {
      "inputs": [
        {
          "internalType": "string",
          "name": "issuerDID",
          "type": "string"
        }
      ],
      "name": "getIssuerByDID",
      "outputs": [
        {
          "internalType": "address",
          "name": "issuerAddress",
          "type": "address"
        }
      ],
      "stateMutability": "view",
      "type": "function"
    },
    {
      "inputs": [],
      "name": "getIssuerCount",
      "outputs": [
        {
          "internalType": "uint256",
          "name": "count",
          "type": "uint256"
        }
      ],
      "stateMutability": "view",
      "type": "function"
    },
    {
      "inputs": [
        {
          "internalType": "address",
          "name": "issuerAddress",
          "type": "address"
        }
      ],
      "name": "isIssuerActive",
      "outputs": [
        {
          "internalType": "bool",
          "name": "isRegistered",
          "type": "bool"
        }
      ],
      "stateMutability": "view",
      "type": "function"
    },
    {
      "inputs": [
        {
          "internalType": "uint256",
          "name": "",
          "type": "uint256"
        }
      ],
      "name": "issuerAddresses",
      "outputs": [
        {
          "internalType": "address",
          "name": "",
          "type": "address"
        }
      ],
      "stateMutability": "view",
      "type": "function"
    },
    {
      "inputs": [
        {
          "internalType": "address",
          "name": "",
          "type": "address"
        }
      ],
      "name": "issuers",
      "outputs": [
        {
          "internalType": "address",
          "name": "issuerAddress",
          "type": "address"
        },
        {
          "internalType": "string",
          "name": "issuerDID",
          "type": "string"
        },
        {
          "internalType": "string",
          "name": "name",
          "type": "string"
        },
        {
          "internalType": "string",
          "name": "domain",
          "type": "string"
        },
        {
          "internalType": "bool",
          "name": "isActive",
          "type": "bool"
        },
        {
          "internalType": "uint256",
          "name": "registrationDate",
          "type": "uint256"
        },
        {
          "internalType": "uint256",
          "name": "lastUpdated",
          "type": "uint256"
        },
        {
          "internalType": "string",
          "name": "metadataURI",
          "type": "string"
        }
      ],
      "stateMutability": "view",
      "type": "function"
    },
    {
      "inputs": [],
      "name": "owner",
      "outputs": [
        {
          "internalType": "address",
          "name": "",
          "type": "address"
        }
      ],
      "stateMutability": "view",
      "type": "function"
    },
    {
      "inputs": [
        {
          "internalType": "address",
          "name": "issuerAddress",
          "type": "address"
        },
        {
          "internalType": "string",
          "name": "issuerDID",
          "type": "string"
        },
        {
          "internalType": "string",
          "name": "name",
          "type": "string"
        },
        {
          "internalType": "string",
          "name": "domain",
          "type": "string"
        },
        {
          "internalType": "string",
          "name": "metadataURI",
          "type": "string"
        }
      ],
      "name": "registerIssuer",
      "outputs": [],
      "stateMutability": "nonpayable",
      "type": "function"
    },
    {
      "inputs": [
        {
          "internalType": "address",
          "name": "adminAddress",
          "type": "address"
        }
      ],
      "name": "removeAdmin",
      "outputs": [],
      "stateMutability": "nonpayable",
      "type": "function"
    },
    {
      "inputs": [
        {
          "internalType": "address",
          "name": "issuerAddress",
          "type": "address"
        },
        {
          "internalType": "string",
          "name": "name",
          "type": "string"
        },
        {
          "internalType": "string",
          "name": "domain",
          "type": "string"
        },
        {
          "internalType": "string",
          "name": "metadataURI",
          "type": "string"
        },
        {
          "internalType": "bool",
          "name": "isActive",
          "type": "bool"
        }
      ],
      "name": "updateIssuer",
      "outputs": [],
      "stateMutability": "nonpayable",
      "type": "function"
    }
  ],
  "bytecode": "0x608060405234801561001057600080fd5b50600380546001600160a01b031916339081179091556000908152600460205260409020805460ff191660011790556119388061004e6000396000f3fe608060405234801561001057600080fd5b50600436106100f55760003560e01c80636ba1f4a411610097578063b0536a5311610066578063b0536a531461023d578063b3b63ef01461026c578063be83e7631461027f578063fef03da31461029457600080fd5b80636ba1f4a4146101d057806370480275146102045780637a009135146102175780638da5cb5b1461022a57600080fd5b8063429b62e5116100d3578063429b62e51461016657806349e3af4d146101995780634b2bac3f146101ac57806363527b49146101bf57600080fd5b80631785f53c146100fa5780632fad59911461010f57806338a7543e1461013f575b600080fd5b61010d610108366004611225565b6102b4565b005b61012261011d366004611247565b610384565b6040516001600160a01b0390911681526020015b60405180910390f35b61015261014d366004611225565b6103ae565b6040516101369897969594939291906112b0565b610189610174366004611225565b60046020526000908152604090205460ff1681565b6040519015158152602001610136565b6101226101a73660046113d7565b610622565b61010d6101ba366004611414565b610653565b600254604051908152602001610136565b6101226101de3660046113d7565b80516020818301810180516001825292820191909301209152546001600160a01b031681565b61010d610212366004611225565b610a25565b61010d610225366004611225565b610ae9565b600354610122906001600160a01b031681565b61018961024b366004611225565b6001600160a01b031660009081526020819052604090206004015460ff1690565b61010d61027a3660046114d2565b610bfa565b610287610d7d565b6040516101369190611585565b6102a76102a2366004611225565b610f0e565b60405161013691906115d2565b6003546001600160a01b031633146102e75760405162461bcd60e51b81526004016102de90611695565b60405180910390fd5b6003546001600160a01b039081169082160361033b5760405162461bcd60e51b815260206004820152601360248201527221b0b73737ba103932b6b7bb329037bbb732b960691b60448201526064016102de565b6001600160a01b038116600081815260046020526040808220805460ff19169055517fa3b62bc36326052d97ea62d63c3d60308ed4c3ea8ac079dd8499f1e9c4f80c0f9190a250565b6002818154811061039457600080fd5b6000918252602090912001546001600160a01b0316905081565b600060208190529081526040902080546001820180546001600160a01b0390921692916103da906116d7565b80601f0160208091040260200160405190810160405280929190818152602001828054610406906116d7565b80156104535780601f1061042857610100808354040283529160200191610453565b820191906000526020600020905b81548152906001019060200180831161043657829003601f168201915b505050505090806002018054610468906116d7565b80601f0160208091040260200160405190810160405280929190818152602001828054610494906116d7565b80156104e15780601f106104b6576101008083540402835291602001916104e1565b820191906000526020600020905b8154815290600101906020018083116104c457829003601f168201915b5050505050908060030180546104f6906116d7565b80601f0160208091040260200160405190810160405280929190818152602001828054610522906116d7565b801561056f5780601f106105445761010080835404028352916020019161056f565b820191906000526020600020905b81548152906001019060200180831161055257829003601f168201915b505050600484015460058501546006860154600787018054969760ff909416969295509093509061059f906116d7565b80601f01602080910402602001604051908101604052809291908181526020018280546105cb906116d7565b80156106185780601f106105ed57610100808354040283529160200191610618565b820191906000526020600020905b8154815290600101906020018083116105fb57829003601f168201915b5050505050905088565b60006001826040516106349190611711565b908152604051908190036020019020546001600160a01b031692915050565b3360009081526004602052604090205460ff168061067b57506003546001600160a01b031633145b6106975760405162461bcd60e51b81526004016102de9061172d565b6001600160a01b0385166106e65760405162461bcd60e51b8152602060048201526016602482015275496e76616c696420697373756572206164647265737360501b60448201526064016102de565b600084511161072d5760405162461bcd60e51b81526020600482015260136024820152724449442063616e6e6f7420626520656d70747960681b60448201526064016102de565b60008351116107755760405162461bcd60e51b81526020600482015260146024820152734e616d652063616e6e6f7420626520656d70747960601b60448201526064016102de565b6001600160a01b03851660009081526020819052604090206004015460ff16156107e15760405162461bcd60e51b815260206004820152601960248201527f49737375657220616c726561647920726567697374657265640000000000000060448201526064016102de565b60006001600160a01b03166001856040516107fc9190611711565b908152604051908190036020019020546001600160a01b0316146108575760405162461bcd60e51b815260206004820152601260248201527144494420616c72656164792065786973747360701b60448201526064016102de565b60408051610100810182526001600160a01b038781168083526020808401898152848601899052606085018890526001608086018190524260a0870181905260c087015260e0860188905260009384529183905294909120835181546001600160a01b0319169316929092178255925191928392908201906108d990826117be565b50604082015160028201906108ee90826117be565b506060820151600382019061090390826117be565b50608082015160048201805460ff191691151591909117905560a0820151600582015560c0820151600682015560e0820151600782019061094490826117be565b50905050856001866040516109599190611711565b90815260405190819003602001812080546001600160a01b039384166001600160a01b031991821617909155600280546001810182556000919091527f405787fa12a823e0f2b7631cc41b3ba8828b3321ca811111fa75cd3aa3bb5ace018054938a1693909116929092179091556109d2908690611711565b6040518091039020866001600160a01b03167fb90fab3f509b58e3f490dae1e5c582e8fde219064c5b98889d1a22f99fd38e848642604051610a1592919061187e565b60405180910390a3505050505050565b6003546001600160a01b03163314610a4f5760405162461bcd60e51b81526004016102de90611695565b6001600160a01b038116610a9d5760405162461bcd60e51b8152602060048201526015602482015274496e76616c69642061646d696e206164647265737360581b60448201526064016102de565b6001600160a01b038116600081815260046020526040808220805460ff19166001179055517f44d6d25963f097ad14f29f06854a01f575648a1ef82f30e562ccd3889717e3399190a250565b3360009081526004602052604090205460ff1680610b1157506003546001600160a01b031633145b610b2d5760405162461bcd60e51b81526004016102de9061172d565b6001600160a01b03811660009081526020819052604090206004015460ff16610b985760405162461bcd60e51b815260206004820152601760248201527f49737375657220616c726561647920696e61637469766500000000000000000060448201526064016102de565b6001600160a01b0381166000818152602081815260409182902060048101805460ff1916905542600690910181905591519182527f586aa13012da4d969863a6facf031a08a22f65dbae68786e4de5261d411a60d8910160405180910390a250565b3360009081526004602052604090205460ff1680610c2257506003546001600160a01b031633145b610c3e5760405162461bcd60e51b81526004016102de9061172d565b6001600160a01b0385811660009081526020819052604090205416610c985760405162461bcd60e51b815260206004820152601060248201526f125cdcdd595c881b9bdd08199bdd5b9960821b60448201526064016102de565b6001600160a01b0385166000908152602081905260409020600201610cbd85826117be565b506001600160a01b0385166000908152602081905260409020600301610ce384826117be565b506001600160a01b0385166000908152602081905260409020600701610d0983826117be565b506001600160a01b0385166000818152602081905260409081902060048101805460ff191685151517905542600690910181905590517f09a41c03cffc75577eb473b80df806ffa894a02a7c2edd813f0931b08e98375891610d6e91889186916118a0565b60405180910390a25050505050565b60606000805b600254811015610df35760008060028381548110610da357610da36118c5565b60009182526020808320909101546001600160a01b0316835282019290925260400190206004015460ff1615610de15781610ddd816118db565b9250505b80610deb816118db565b915050610d83565b508067ffffffffffffffff811115610e0d57610e0d611334565b604051908082528060200260200182016040528015610e36578160200160208202803683370190505b5091506000805b600254811015610f085760008060028381548110610e5d57610e5d6118c5565b60009182526020808320909101546001600160a01b0316835282019290925260400190206004015460ff1615610ef65760028181548110610ea057610ea06118c5565b9060005260206000200160009054906101000a90046001600160a01b0316848381518110610ed057610ed06118c5565b6001600160a01b039092166020928302919091019091015281610ef2816118db565b9250505b80610f00816118db565b915050610e3d565b50505090565b610f6160405180610100016040528060006001600160a01b031681526020016060815260200160608152602001606081526020016000151581526020016000815260200160008152602001606081525090565b6001600160a01b0380831660009081526020818152604091829020825161010081019093528054909316825260018301805492939291840191610fa3906116d7565b80601f0160208091040260200160405190810160405280929190818152602001828054610fcf906116d7565b801561101c5780601f10610ff15761010080835404028352916020019161101c565b820191906000526020600020905b815481529060010190602001808311610fff57829003601f168201915b50505050508152602001600282018054611035906116d7565b80601f0160208091040260200160405190810160405280929190818152602001828054611061906116d7565b80156110ae5780601f10611083576101008083540402835291602001916110ae565b820191906000526020600020905b81548152906001019060200180831161109157829003601f168201915b505050505081526020016003820180546110c7906116d7565b80601f01602080910402602001604051908101604052809291908181526020018280546110f3906116d7565b80156111405780601f1061111557610100808354040283529160200191611140565b820191906000526020600020905b81548152906001019060200180831161112357829003601f168201915b5050509183525050600482015460ff16151560208201526005820154604082015260068201546060820152600782018054608090920191611180906116d7565b80601f01602080910402602001604051908101604052809291908181526020018280546111ac906116d7565b80156111f95780601f106111ce576101008083540402835291602001916111f9565b820191906000526020600020905b8154815290600101906020018083116111dc57829003601f168201915b5050505050815250509050919050565b80356001600160a01b038116811461122057600080fd5b919050565b60006020828403121561123757600080fd5b61124082611209565b9392505050565b60006020828403121561125957600080fd5b5035919050565b60005b8381101561127b578181015183820152602001611263565b50506000910152565b6000815180845261129c816020860160208601611260565b601f01601f19169290920160200192915050565b6001600160a01b0389168152610100602082018190526000906112d58382018b611284565b905082810360408401526112e9818a611284565b905082810360608401526112fd8189611284565b905086151560808401528560a08401528460c084015282810360e08401526113258185611284565b9b9a5050505050505050505050565b634e487b7160e01b600052604160045260246000fd5b600082601f83011261135b57600080fd5b813567ffffffffffffffff8082111561137657611376611334565b604051601f8301601f19908116603f0116810190828211818310171561139e5761139e611334565b816040528381528660208588010111156113b757600080fd5b836020870160208301376000602085830101528094505050505092915050565b6000602082840312156113e957600080fd5b813567ffffffffffffffff81111561140057600080fd5b61140c8482850161134a565b949350505050565b600080600080600060a0868803121561142c57600080fd5b61143586611209565b9450602086013567ffffffffffffffff8082111561145257600080fd5b61145e89838a0161134a565b9550604088013591508082111561147457600080fd5b61148089838a0161134a565b9450606088013591508082111561149657600080fd5b6114a289838a0161134a565b935060808801359150808211156114b857600080fd5b506114c58882890161134a565b9150509295509295909350565b600080600080600060a086880312156114ea57600080fd5b6114f386611209565b9450602086013567ffffffffffffffff8082111561151057600080fd5b61151c89838a0161134a565b9550604088013591508082111561153257600080fd5b61153e89838a0161134a565b9450606088013591508082111561155457600080fd5b506115618882890161134a565b9250506080860135801515811461157757600080fd5b809150509295509295909350565b6020808252825182820181905260009190848201906040850190845b818110156115c65783516001600160a01b0316835292840192918401916001016115a1565b50909695505050505050565b602081526115ec6020820183516001600160a01b03169052565b6000602083015161010080604085015261160a610120850183611284565b91506040850151601f19808685030160608701526116288483611284565b935060608701519150808685030160808701526116458483611284565b93506080870151915061165c60a087018315159052565b60a087015160c087015260c087015160e087015260e087015191508086850301838701525061168b8382611284565b9695505050505050565b60208082526022908201527f4f6e6c79206f776e65722063616e20706572666f726d2074686973206163746960408201526137b760f11b606082015260800190565b600181811c908216806116eb57607f821691505b60208210810361170b57634e487b7160e01b600052602260045260246000fd5b50919050565b60008251611723818460208701611260565b9190910192915050565b60208082526022908201527f4f6e6c792061646d696e2063616e20706572666f726d2074686973206163746960408201526137b760f11b606082015260800190565b601f8211156117b957600081815260208120601f850160051c810160208610156117965750805b601f850160051c820191505b818110156117b5578281556001016117a2565b5050505b505050565b815167ffffffffffffffff8111156117d8576117d8611334565b6117ec816117e684546116d7565b8461176f565b602080601f83116001811461182157600084156118095750858301515b600019600386901b1c1916600185901b1785556117b5565b600085815260208120601f198616915b8281101561185057888601518255948401946001909101908401611831565b508582101561186e5787850151600019600388901b60f8161c191681555b5050505050600190811b01905550565b6040815260006118916040830185611284565b90508260208301529392505050565b6060815260006118b36060830186611284565b93151560208301525060400152919050565b634e487b7160e01b600052603260045260246000fd5b6000600182016118fb57634e487b7160e01b600052601160045260246000fd5b506001019056fea26469706673582212207e97faf63fb8b2c37d98caa712f3b37453288973c9a191aef4f7d45d9524f06364736f6c63430008130033",
  "linkReferences": {},
  "deployedLinkReferences": {}
}