{
  "_format": "hh-sol-artifact-1",
  "contractName": "CredentialRegistry",
  "sourceName": "contracts/CredentialRegistry.sol",
  "abi": [
    {
      "inputs": [
        {
          "internalType": "address",
          "name": "_issuerRegistryAddress",
          "type": "address"
        }
      ],
      "stateMutability": "nonpayable",
      "type": "constructor"
    },
    {
      "anonymous": false,
      "inputs": [
        {
          "indexed": true,
          "internalType": "bytes32",
          "name": "credentialHash",
          "type": "bytes32"
        },
        {
          "indexed": true,
          "internalType": "address",
          "name": "issuerAddress",
          "type": "address"
        },
        {
          "indexed": true,
          "internalType": "address",
          "name": "learnerAddress",
          "type": "address"
        },
        {
          "indexed": false,
          "internalType": "string",
          "name": "credentialId",
          "type": "string"
        },
        {
          "indexed": false,
          "internalType": "uint256",
          "name": "issuedAt",
          "type": "uint256"
        }
      ],
      "name": "CredentialIssued",
      "type": "event"
    },
    {
      "anonymous": false,
      "inputs": [
        {
          "indexed": true,
          "internalType": "bytes32",
          "name": "credentialHash",
          "type": "bytes32"
        },
        {
          "indexed": true,
          "internalType": "address",
          "name": "issuerAddress",
          "type": "address"
        },
        {
          "indexed": false,
          "internalType": "string",
          "name": "revocationReason",
          "type": "string"
        },
        {
          "indexed": false,
          "internalType": "uint256",
          "name": "revokedAt",
          "type": "uint256"
        }
      ],
      "name": "CredentialRevoked",
      "type": "event"
    },
    {
      "anonymous": false,
      "inputs": [
        {
          "indexed": true,
          "internalType": "bytes32",
          "name": "credentialHash",
          "type": "bytes32"
        },
        {
          "indexed": true,
          "internalType": "address",
          "name": "verifierAddress",
          "type": "address"
        },
        {
          "indexed": false,
          "internalType": "bool",
          "name": "isValid",
          "type": "bool"
        },
        {
          "indexed": false,
          "internalType": "uint256",
          "name": "verifiedAt",
          "type": "uint256"
        }
      ],
      "name": "CredentialVerified",
      "type": "event"
    },
    {
      "anonymous": false,
      "inputs": [
        {
          "indexed": true,
          "internalType": "address",
          "name": "oldRegistry",
          "type": "address"
        },
        {
          "indexed": true,
          "internalType": "address",
          "name": "newRegistry",
          "type": "address"
        }
      ],
      "name": "IssuerRegistryUpdated",
      "type": "event"
    },
    {
      "inputs": [
        {
          "internalType": "address",
          "name": "adminAddress",
          "type": "address"
        }
      ],
      "name": "addAdmin",
      "outputs": [],
      "stateMutability": "nonpayable",
      "type": "function"
    },
    {
      "inputs": [
        {
          "internalType": "address",
          "name": "",
          "type": "address"
        }
      ],
      "name": "admins",
      "outputs": [
        {
          "internalType": "bool",
          "name": "",
          "type": "bool"
        }
      ],
      "stateMutability": "view",
      "type": "function"
    },
    {
      "inputs": [
        {
          "internalType": "uint256",
          "name": "",
          "type": "uint256"
        }
      ],
      "name": "allCredentialHashes",
      "outputs": [
        {
          "internalType": "bytes32",
          "name": "",
          "type": "bytes32"
        }
      ],
      "stateMutability": "view",
      "type": "function"
    },
    {
      "inputs": [
        {
          "internalType": "bytes32[]",
          "name": "credentialHashes",
          "type": "bytes32[]"
        }
      ],
      "name": "batchVerifyCredentials",
      "outputs": [
        {
          "internalType": "bool[]",
          "name": "results",
          "type": "bool[]"
        }
      ],
      "stateMutability": "view",
      "type": "function"
    },
    {
      "inputs": [
        {
          "internalType": "string",
          "name": "",
          "type": "string"
        }
      ],
      "name": "credentialIdToHash",
      "outputs": [
        {
          "internalType": "bytes32",
          "name": "",
          "type": "bytes32"
        }
      ],
      "stateMutability": "view",
      "type": "function"
    },
    {
      "inputs": [
        {
          "internalType": "bytes32",
          "name": "",
          "type": "bytes32"
        }
      ],
      "name": "credentials",
      "outputs": [
        {
          "internalType": "bytes32",
          "name": "credentialHash",
          "type": "bytes32"
        },
        {
          "internalType": "address",
          "name": "issuerAddress",
          "type": "address"
        },
        {
          "internalType": "address",
          "name": "learnerAddress",
          "type": "address"
        },
        {
          "internalType": "string",
          "name": "credentialId",
          "type": "string"
        },
        {
          "internalType": "string",
          "name": "issuerDID",
          "type": "string"
        },
        {
          "internalType": "string",
          "name": "credentialType",
          "type": "string"
        },
        {
          "internalType": "uint256",
          "name": "issuedAt",
          "type": "uint256"
        },
        {
          "internalType": "uint256",
          "name": "expiresAt",
          "type": "uint256"
        },
        {
          "internalType": "bool",
          "name": "isRevoked",
          "type": "bool"
        },
        {
          "internalType": "uint256",
          "name": "revokedAt",
          "type": "uint256"
        },
        {
          "internalType": "string",
          "name": "revocationReason",
          "type": "string"
        },
        {
          "internalType": "string",
          "name": "metadataURI",
          "type": "string"
        }
      ],
      "stateMutability": "view",
      "type": "function"
    },
    {
      "inputs": [
        {
          "internalType": "bytes32",
          "name": "credentialHash",
          "type": "bytes32"
        }
      ],
      "name": "getCredential",
      "outputs": [
        {
          "components": [
            {
              "internalType": "bytes32",
              "name": "credentialHash",
              "type": "bytes32"
            },
            {
              "internalType": "address",
              "name": "issuerAddress",
              "type": "address"
            },
            {
              "internalType": "address",
              "name": "learnerAddress",
              "type": "address"
            },
            {
              "internalType": "string",
              "name": "credentialId",
              "type": "string"
            },
            {
              "internalType": "string",
              "name": "issuerDID",
              "type": "string"
            },
            {
              "internalType": "string",
              "name": "credentialType",
              "type": "string"
            },
            {
              "internalType": "uint256",
              "name": "issuedAt",
              "type": "uint256"
            },
            {
              "internalType": "uint256",
              "name": "expiresAt",
              "type": "uint256"
            },
            {
              "internalType": "bool",
              "name": "isRevoked",
              "type": "bool"
            },
            {
              "internalType": "uint256",
              "name": "revokedAt",
              "type": "uint256"
            },
            {
              "internalType": "string",
              "name": "revocationReason",
              "type": "string"
            },
            {
              "internalType": "string",
              "name": "metadataURI",
              "type": "string"
            }
          ],
          "internalType": "struct CredentialRegistry.CredentialRecord",
          "name": "credential",
          "type": "tuple"
        }
      ],
      "stateMutability": "view",
      "type": "function"
    },
    {
      "inputs": [
        {
          "internalType": "string",
          "name": "credentialId",
          "type": "string"
        }
      ],
      "name": "getCredentialHash",
      "outputs": [
        {
          "internalType": "bytes32",
          "name": "credentialHash",
          "type": "bytes32"
        }
      ],
      "stateMutability": "view",
      "type": "function"
    },
    {
      "inputs": [
        {
          "internalType": "address",
          "name": "issuerAddress",
          "type": "address"
        }
      ],
      "name": "getIssuerCredentials",
      "outputs": [
        {
          "internalType": "bytes32[]",
          "name": "credentialHashes",
          "type": "bytes32[]"
        }
      ],
      "stateMutability": "view",
      "type": "function"
    },
    {
      "inputs": [
        {
          "internalType": "address",
          "name": "learnerAddress",
          "type": "address"
        }
      ],
      "name": "getLearnerCredentials",
      "outputs": [
        {
          "internalType": "bytes32[]",
          "name": "credentialHashes",
          "type": "bytes32[]"
        }
      ],
      "stateMutability": "view",
      "type": "function"
    },
    {
      "inputs": [],
      "name": "getTotalCredentials",
      "outputs": [
        {
          "internalType": "uint256",
          "name": "count",
          "type": "uint256"
        }
      ],
      "stateMutability": "view",
      "type": "function"
    },
    {
      "inputs": [
        {
          "internalType": "bytes32",
          "name": "",
          "type": "bytes32"
        }
      ],
      "name": "isCredentialIssuancePaused",
      "outputs": [
        {
          "internalType": "bool",
          "name": "",
          "type": "bool"
        }
      ],
      "stateMutability": "pure",
      "type": "function"
    },
    {
      "inputs": [
        {
          "internalType": "bytes32",
          "name": "credentialHash",
          "type": "bytes32"
        },
        {
          "internalType": "address",
          "name": "learnerAddress",
          "type": "address"
        },
        {
          "internalType": "string",
          "name": "credentialId",
          "type": "string"
        },
        {
          "internalType": "string",
          "name": "issuerDID",
          "type": "string"
        },
        {
          "internalType": "string",
          "name": "credentialType",
          "type": "string"
        },
        {
          "internalType": "uint256",
          "name": "expiresAt",
          "type": "uint256"
        },
        {
          "internalType": "string",
          "name": "metadataURI",
          "type": "string"
        }
      ],
      "name": "issueCredential",
      "outputs": [],
      "stateMutability": "nonpayable",
      "type": "function"
    },
    {
      "inputs": [
        {
          "internalType": "address",
          "name": "",
          "type": "address"
        },
        {
          "internalType": "uint256",
          "name": "",
          "type": "uint256"
        }
      ],
      "name": "issuerCredentials",
      "outputs": [
        {
          "internalType": "bytes32",
          "name": "",
          "type": "bytes32"
        }
      ],
      "stateMutability": "view",
      "type": "function"
    },
    {
      "inputs": [],
      "name": "issuerRegistryAddress",
      "outputs": [
        {
          "internalType": "address",
          "name": "",
          "type": "address"
        }
      ],
      "stateMutability": "view",
      "type": "function"
    },
    {
      "inputs": [
        {
          "internalType": "address",
          "name": "",
          "type": "address"
        },
        {
          "internalType": "uint256",
          "name": "",
          "type": "uint256"
        }
      ],
      "name": "learnerCredentials",
      "outputs": [
        {
          "internalType": "bytes32",
          "name": "",
          "type": "bytes32"
        }
      ],
      "stateMutability": "view",
      "type": "function"
    },
    {
      "inputs": [],
      "name": "owner",
      "outputs": [
        {
          "internalType": "address",
          "name": "",
          "type": "address"
        }
      ],
      "stateMutability": "view",
      "type": "function"
    },
    {
      "inputs": [
        {
          "internalType": "address",
          "name": "adminAddress",
          "type": "address"
        }
      ],
      "name": "removeAdmin",
      "outputs": [],
      "stateMutability": "nonpayable",
      "type": "function"
    },
    {
      "inputs": [
        {
          "internalType": "bytes32",
          "name": "credentialHash",
          "type": "bytes32"
        },
        {
          "internalType": "string",
          "name": "revocationReason",
          "type": "string"
        }
      ],
      "name": "revokeCredential",
      "outputs": [],
      "stateMutability": "nonpayable",
      "type": "function"
    },
    {
      "inputs": [
        {
          "internalType": "address",
          "name": "newRegistryAddress",
          "type": "address"
        }
      ],
      "name": "updateIssuerRegistry",
      "outputs": [],
      "stateMutability": "nonpayable",
      "type": "function"
    },
    {
      "inputs": [
        {
          "internalType": "bytes32",
          "name": "credentialHash",
          "type": "bytes32"
        }
      ],
      "name": "verifyCredential",
      "outputs": [
        {
          "internalType": "bool",
          "name": "isValid",
          "type": "bool"
        },
        {
          "internalType": "address",
          "name": "issuerAddress",
          "type": "address"
        },
        {
          "internalType": "address",
          "name": "learnerAddress",
          "type": "address"
        },
        {
          "internalType": "uint256",
          "name": "issuedAt",
          "type": "uint256"
        },
        {
          "internalType": "uint256",
          "name": "expiresAt",
          "type": "uint256"
        },
        {
          "internalType": "bool",
          "name": "isExpired",
          "type": "bool"
        }
      ],
      "stateMutability": "view",
      "type": "function"
    }
  ],
  "bytecode": "0x60806040523480156200001157600080fd5b50604051620027ff380380620027ff833981016040819052620000349162000083565b60068054336001600160a01b03199182168117909255600091825260076020526040909120805460ff19166001179055600580549091166001600160a01b0392909216919091179055620000b5565b6000602082840312156200009657600080fd5b81516001600160a01b0381168114620000ae57600080fd5b9392505050565b61273a80620000c56000396000f3fe608060405234801561001057600080fd5b50600436106101375760003560e01c80636a477ffc116100b85780638da5cb5b1161007c5780638da5cb5b14610316578063a59a837714610341578063d1be488314610354578063d798b61d14610374578063d8202ffb14610387578063f1470a351461039a57600080fd5b80636a477ffc1461029157806370480275146102bc57806372a0c0b8146102cf57806382c4e329146102ef578063891466a61461030257600080fd5b8063396dc08d116100ff578063396dc08d146101c8578063429b62e5146101db578063493814b51461020e5780634dbf87cc14610221578063581e902d1461027157600080fd5b80630912ed721461013c5780631785f53c146101515780631a7d10f1146101645780631abac44b14610177578063299d03481461019d575b600080fd5b61014f61014a366004611fe4565b6103a2565b005b61014f61015f3660046120b5565b610aa6565b61014f6101723660046120b5565b610b45565b61018a6101853660046120d7565b610c17565b6040519081526020015b60405180910390f35b6101b06101ab366004612101565b610c48565b6040516101949c9b9a9998979695949392919061216a565b61018a6101d6366004612101565b610f60565b6101fe6101e93660046120b5565b60076020526000908152604090205460ff1681565b6040519015158152602001610194565b61014f61021c366004612222565b610f81565b61023461022f366004612101565b61113d565b6040805196151587526001600160a01b039586166020880152939094169285019290925260608401526080830152151560a082015260c001610194565b61028461027f366004612269565b61151b565b604051610194919061230f565b61018a61029f366004612355565b805160208183018101805160018252928201919093012091525481565b61014f6102ca3660046120b5565b611983565b6102e26102dd3660046120b5565b611a1f565b6040516101949190612392565b61018a6102fd366004612355565b611a8b565b6101fe610310366004612101565b50600090565b600654610329906001600160a01b031681565b6040516001600160a01b039091168152602001610194565b61018a61034f3660046120d7565b611ab3565b610367610362366004612101565b611acf565b60405161019491906123ca565b600554610329906001600160a01b031681565b6102e26103953660046120b5565b611ea7565b60045461018a565b6005546001600160a01b03166103ff5760405162461bcd60e51b815260206004820152601760248201527f497373756572207265676973747279206e6f742073657400000000000000000060448201526064015b60405180910390fd5b60055460405133602482015260009182916001600160a01b039091169060440160408051601f198184030181529181526020820180516001600160e01b031663b0536a5360e01b1790525161045491906124e2565b6000604051808303816000865af19150503d8060008114610491576040519150601f19603f3d011682016040523d82523d6000602084013e610496565b606091505b5091509150816104e85760405162461bcd60e51b815260206004820152601b60248201527f4973737565722072656769737472792063616c6c206661696c6564000000000060448201526064016103f6565b6000818060200190518101906104fe91906124fe565b9050806105655760405162461bcd60e51b815260206004820152602f60248201527f4f6e6c79207265676973746572656420697373756572732063616e207065726660448201526e37b936903a3434b99030b1ba34b7b760891b60648201526084016103f6565b896105b25760405162461bcd60e51b815260206004820152601e60248201527f43726564656e7469616c20686173682063616e6e6f74206265207a65726f000060448201526064016103f6565b6001600160a01b0389166106085760405162461bcd60e51b815260206004820152601760248201527f496e76616c6964206c6561726e6572206164647265737300000000000000000060448201526064016103f6565b60008851116106595760405162461bcd60e51b815260206004820152601d60248201527f43726564656e7469616c2049442063616e6e6f7420626520656d70747900000060448201526064016103f6565b60008751116106aa5760405162461bcd60e51b815260206004820152601a60248201527f497373756572204449442063616e6e6f7420626520656d70747900000000000060448201526064016103f6565b60008a815260208190526040902054156107065760405162461bcd60e51b815260206004820152601960248201527f43726564656e7469616c20616c7265616479206578697374730000000000000060448201526064016103f6565b6000801b60018960405161071a91906124e2565b908152602001604051809103902054146107765760405162461bcd60e51b815260206004820152601c60248201527f43726564656e7469616c20494420616c7265616479206578697374730000000060448201526064016103f6565b84158061078257504285115b6107ce5760405162461bcd60e51b815260206004820152601760248201527f496e76616c69642065787069726174696f6e2074696d6500000000000000000060448201526064016103f6565b60006040518061018001604052808c8152602001336001600160a01b031681526020018b6001600160a01b031681526020018a815260200189815260200188815260200142815260200187815260200160001515815260200160008152602001604051806020016040528060008152508152602001868152509050806000808d81526020019081526020016000206000820151816000015560208201518160010160006101000a8154816001600160a01b0302191690836001600160a01b0316021790555060408201518160020160006101000a8154816001600160a01b0302191690836001600160a01b0316021790555060608201518160030190816108d591906125a3565b50608082015160048201906108ea90826125a3565b5060a082015160058201906108ff90826125a3565b5060c0820151600682015560e0820151600782015561010082015160088201805460ff19169115159190911790556101208201516009820155610140820151600a82019061094d90826125a3565b50610160820151600b82019061096390826125a3565b509050508a60018a60405161097891906124e2565b908152602001604051809103902081905550600260008b6001600160a01b03166001600160a01b031681526020019081526020016000208b908060018154018082558091505060019003906000526020600020016000909190919091505560036000336001600160a01b03166001600160a01b031681526020019081526020016000208b908060018154018082558091505060019003906000526020600020016000909190919091505560048b9080600181540180825580915050600190039060005260206000200160009091909190915055896001600160a01b0316336001600160a01b03168c7ffd2fd57793a904d1bdce3f070b59f8c3bcbc5f5570abff93c9da0fca10f08c668c42604051610a91929190612663565b60405180910390a45050505050505050505050565b6006546001600160a01b03163314610ad05760405162461bcd60e51b81526004016103f690612685565b6006546001600160a01b0390811690821603610b245760405162461bcd60e51b815260206004820152601360248201527221b0b73737ba103932b6b7bb329037bbb732b960691b60448201526064016103f6565b6001600160a01b03166000908152600760205260409020805460ff19169055565b6006546001600160a01b03163314610b6f5760405162461bcd60e51b81526004016103f690612685565b6001600160a01b038116610bc55760405162461bcd60e51b815260206004820152601860248201527f496e76616c69642072656769737472792061646472657373000000000000000060448201526064016103f6565b600580546001600160a01b038381166001600160a01b0319831681179093556040519116919082907fe7afd721c46f8367e6fde893fc343404fb8c91b32fe8fc440035458e37ae444490600090a35050565b60036020528160005260406000208181548110610c3357600080fd5b90600052602060002001600091509150505481565b600060208190529081526040902080546001820154600283015460038401805493946001600160a01b03938416949390921692610c8490612520565b80601f0160208091040260200160405190810160405280929190818152602001828054610cb090612520565b8015610cfd5780601f10610cd257610100808354040283529160200191610cfd565b820191906000526020600020905b815481529060010190602001808311610ce057829003601f168201915b505050505090806004018054610d1290612520565b80601f0160208091040260200160405190810160405280929190818152602001828054610d3e90612520565b8015610d8b5780601f10610d6057610100808354040283529160200191610d8b565b820191906000526020600020905b815481529060010190602001808311610d6e57829003601f168201915b505050505090806005018054610da090612520565b80601f0160208091040260200160405190810160405280929190818152602001828054610dcc90612520565b8015610e195780601f10610dee57610100808354040283529160200191610e19565b820191906000526020600020905b815481529060010190602001808311610dfc57829003601f168201915b5050506006840154600785015460088601546009870154600a880180549798949793965060ff90921694509291610e4f90612520565b80601f0160208091040260200160405190810160405280929190818152602001828054610e7b90612520565b8015610ec85780601f10610e9d57610100808354040283529160200191610ec8565b820191906000526020600020905b815481529060010190602001808311610eab57829003601f168201915b50505050509080600b018054610edd90612520565b80601f0160208091040260200160405190810160405280929190818152602001828054610f0990612520565b8015610f565780601f10610f2b57610100808354040283529160200191610f56565b820191906000526020600020905b815481529060010190602001808311610f3957829003601f168201915b505050505090508c565b60048181548110610f7057600080fd5b600091825260209091200154905081565b60008281526020819052604090208054610fd45760405162461bcd60e51b815260206004820152601460248201527310dc9959195b9d1a585b081b9bdd08199bdd5b9960621b60448201526064016103f6565b600881015460ff16156110295760405162461bcd60e51b815260206004820152601a60248201527f43726564656e7469616c20616c7265616479207265766f6b656400000000000060448201526064016103f6565b60018101546001600160a01b031633148061105357503360009081526007602052604090205460ff165b8061106857506006546001600160a01b031633145b6110c75760405162461bcd60e51b815260206004820152602a60248201527f4f6e6c7920697373756572206f722061646d696e2063616e207265766f6b652060448201526918dc9959195b9d1a585b60b21b60648201526084016103f6565b60088101805460ff19166001179055426009820155600a81016110ea83826125a3565b5060018101546040516001600160a01b039091169084907f1012a331928d77cc631828196503265233528edd0258ea1faceb7ee8f552e856906111309086904290612663565b60405180910390a3505050565b6000818152602081815260408083208151610180810183528154815260018201546001600160a01b0390811694820194909452600282015490931691830191909152600381018054849384938493849384938493909290916060840191906111a490612520565b80601f01602080910402602001604051908101604052809291908181526020018280546111d090612520565b801561121d5780601f106111f25761010080835404028352916020019161121d565b820191906000526020600020905b81548152906001019060200180831161120057829003601f168201915b5050505050815260200160048201805461123690612520565b80601f016020809104026020016040519081016040528092919081815260200182805461126290612520565b80156112af5780601f10611284576101008083540402835291602001916112af565b820191906000526020600020905b81548152906001019060200180831161129257829003601f168201915b505050505081526020016005820180546112c890612520565b80601f01602080910402602001604051908101604052809291908181526020018280546112f490612520565b80156113415780601f1061131657610100808354040283529160200191611341565b820191906000526020600020905b81548152906001019060200180831161132457829003601f168201915b50505091835250506006820154602082015260078201546040820152600882015460ff161515606082015260098201546080820152600a8201805460a09092019161138b90612520565b80601f01602080910402602001604051908101604052809291908181526020018280546113b790612520565b80156114045780601f106113d957610100808354040283529160200191611404565b820191906000526020600020905b8154815290600101906020018083116113e757829003601f168201915b50505050508152602001600b8201805461141d90612520565b80601f016020809104026020016040519081016040528092919081815260200182805461144990612520565b80156114965780601f1061146b57610100808354040283529160200191611496565b820191906000526020600020905b81548152906001019060200180831161147957829003601f168201915b50505091909252505081519192506114c590505760008060008060008096509650965096509650965050611512565b60008160e001511180156114dc57508060e0015142115b91508061010001511580156114ef575081155b965086816020015182604001518360c001518460e0015196509650965096509650505b91939550919395565b6060815167ffffffffffffffff81111561153757611537611f2d565b604051908082528060200260200182016040528015611560578160200160208202803683370190505b50905060005b825181101561197d576000806000858481518110611586576115866126c7565b60209081029190910181015182528181019290925260409081016000208151610180810183528154815260018201546001600160a01b03908116948201949094526002820154909316918301919091526003810180546060840191906115eb90612520565b80601f016020809104026020016040519081016040528092919081815260200182805461161790612520565b80156116645780601f1061163957610100808354040283529160200191611664565b820191906000526020600020905b81548152906001019060200180831161164757829003601f168201915b5050505050815260200160048201805461167d90612520565b80601f01602080910402602001604051908101604052809291908181526020018280546116a990612520565b80156116f65780601f106116cb576101008083540402835291602001916116f6565b820191906000526020600020905b8154815290600101906020018083116116d957829003601f168201915b5050505050815260200160058201805461170f90612520565b80601f016020809104026020016040519081016040528092919081815260200182805461173b90612520565b80156117885780601f1061175d57610100808354040283529160200191611788565b820191906000526020600020905b81548152906001019060200180831161176b57829003601f168201915b50505091835250506006820154602082015260078201546040820152600882015460ff161515606082015260098201546080820152600a8201805460a0909201916117d290612520565b80601f01602080910402602001604051908101604052809291908181526020018280546117fe90612520565b801561184b5780601f106118205761010080835404028352916020019161184b565b820191906000526020600020905b81548152906001019060200180831161182e57829003601f168201915b50505050508152602001600b8201805461186490612520565b80601f016020809104026020016040519081016040528092919081815260200182805461189090612520565b80156118dd5780601f106118b2576101008083540402835291602001916118dd565b820191906000526020600020905b8154815290600101906020018083116118c057829003601f168201915b505050919092525050815191925061191b9050576000838381518110611905576119056126c7565b911515602092830291909101909101525061196b565b6000808260e0015111801561193357508160e0015142115b9050816101000151158015611946575080155b848481518110611958576119586126c7565b9115156020928302919091019091015250505b80611975816126dd565b915050611566565b50919050565b6006546001600160a01b031633146119ad5760405162461bcd60e51b81526004016103f690612685565b6001600160a01b0381166119fb5760405162461bcd60e51b8152602060048201526015602482015274496e76616c69642061646d696e206164647265737360581b60448201526064016103f6565b6001600160a01b03166000908152600760205260409020805460ff19166001179055565b6001600160a01b038116600090815260026020908152604091829020805483518184028101840190945280845260609392830182828015611a7f57602002820191906000526020600020905b815481526020019060010190808311611a6b575b50505050509050919050565b6000600182604051611a9d91906124e2565b9081526020016040518091039020549050919050565b60026020528160005260406000208181548110610c3357600080fd5b611b4a6040518061018001604052806000801916815260200160006001600160a01b0316815260200160006001600160a01b0316815260200160608152602001606081526020016060815260200160008152602001600081526020016000151581526020016000815260200160608152602001606081525090565b600082815260208181526040918290208251610180810184528154815260018201546001600160a01b0390811693820193909352600282015490921692820192909252600382018054919291606084019190611ba590612520565b80601f0160208091040260200160405190810160405280929190818152602001828054611bd190612520565b8015611c1e5780601f10611bf357610100808354040283529160200191611c1e565b820191906000526020600020905b815481529060010190602001808311611c0157829003601f168201915b50505050508152602001600482018054611c3790612520565b80601f0160208091040260200160405190810160405280929190818152602001828054611c6390612520565b8015611cb05780601f10611c8557610100808354040283529160200191611cb0565b820191906000526020600020905b815481529060010190602001808311611c9357829003601f168201915b50505050508152602001600582018054611cc990612520565b80601f0160208091040260200160405190810160405280929190818152602001828054611cf590612520565b8015611d425780601f10611d1757610100808354040283529160200191611d42565b820191906000526020600020905b815481529060010190602001808311611d2557829003601f168201915b50505091835250506006820154602082015260078201546040820152600882015460ff161515606082015260098201546080820152600a8201805460a090920191611d8c90612520565b80601f0160208091040260200160405190810160405280929190818152602001828054611db890612520565b8015611e055780601f10611dda57610100808354040283529160200191611e05565b820191906000526020600020905b815481529060010190602001808311611de857829003601f168201915b50505050508152602001600b82018054611e1e90612520565b80601f0160208091040260200160405190810160405280929190818152602001828054611e4a90612520565b8015611e975780601f10611e6c57610100808354040283529160200191611e97565b820191906000526020600020905b815481529060010190602001808311611e7a57829003601f168201915b5050505050815250509050919050565b6001600160a01b038116600090815260036020908152604091829020805483518184028101840190945280845260609392830182828015611a7f5760200282019190600052602060002090815481526020019060010190808311611a6b5750505050509050919050565b80356001600160a01b0381168114611f2857600080fd5b919050565b634e487b7160e01b600052604160045260246000fd5b604051601f8201601f1916810167ffffffffffffffff81118282101715611f6c57611f6c611f2d565b604052919050565b600082601f830112611f8557600080fd5b813567ffffffffffffffff811115611f9f57611f9f611f2d565b611fb2601f8201601f1916602001611f43565b818152846020838601011115611fc757600080fd5b816020850160208301376000918101602001919091529392505050565b600080600080600080600060e0888a031215611fff57600080fd5b8735965061200f60208901611f11565b9550604088013567ffffffffffffffff8082111561202c57600080fd5b6120388b838c01611f74565b965060608a013591508082111561204e57600080fd5b61205a8b838c01611f74565b955060808a013591508082111561207057600080fd5b61207c8b838c01611f74565b945060a08a0135935060c08a013591508082111561209957600080fd5b506120a68a828b01611f74565b91505092959891949750929550565b6000602082840312156120c757600080fd5b6120d082611f11565b9392505050565b600080604083850312156120ea57600080fd5b6120f383611f11565b946020939093013593505050565b60006020828403121561211357600080fd5b5035919050565b60005b8381101561213557818101518382015260200161211d565b50506000910152565b6000815180845261215681602086016020860161211a565b601f01601f19169290920160200192915050565b8c81526001600160a01b038c811660208301528b166040820152600061018080606084015261219b8184018d61213e565b905082810360808401526121af818c61213e565b905082810360a08401526121c3818b61213e565b90508860c08401528760e08401526121e061010084018815159052565b856101208401528281036101408401526121fa818661213e565b905082810361016084015261220f818561213e565b9f9e505050505050505050505050505050565b6000806040838503121561223557600080fd5b82359150602083013567ffffffffffffffff81111561225357600080fd5b61225f85828601611f74565b9150509250929050565b6000602080838503121561227c57600080fd5b823567ffffffffffffffff8082111561229457600080fd5b818501915085601f8301126122a857600080fd5b8135818111156122ba576122ba611f2d565b8060051b91506122cb848301611f43565b81815291830184019184810190888411156122e557600080fd5b938501935b83851015612303578435825293850193908501906122ea565b98975050505050505050565b6020808252825182820181905260009190848201906040850190845b8181101561234957835115158352928401929184019160010161232b565b50909695505050505050565b60006020828403121561236757600080fd5b813567ffffffffffffffff81111561237e57600080fd5b61238a84828501611f74565b949350505050565b6020808252825182820181905260009190848201906040850190845b81811015612349578351835292840192918401916001016123ae565b6020815281516020820152600060208301516123f160408401826001600160a01b03169052565b5060408301516001600160a01b03811660608401525060608301516101808060808501526124236101a085018361213e565b91506080850151601f19808685030160a0870152612441848361213e565b935060a08701519150808685030160c087015261245e848361213e565b935060c087015160e087015260e087015191506101008281880152808801519250506101206124908188018415159052565b808801519250506101408281880152808801519250506101608187860301818801526124bc858461213e565b9088015187820390920184880152935090506124d8838261213e565b9695505050505050565b600082516124f481846020870161211a565b9190910192915050565b60006020828403121561251057600080fd5b815180151581146120d057600080fd5b600181811c9082168061253457607f821691505b60208210810361197d57634e487b7160e01b600052602260045260246000fd5b601f82111561259e57600081815260208120601f850160051c8101602086101561257b5750805b601f850160051c820191505b8181101561259a57828155600101612587565b5050505b505050565b815167ffffffffffffffff8111156125bd576125bd611f2d565b6125d1816125cb8454612520565b84612554565b602080601f83116001811461260657600084156125ee5750858301515b600019600386901b1c1916600185901b17855561259a565b600085815260208120601f198616915b8281101561263557888601518255948401946001909101908401612616565b50858210156126535787850151600019600388901b60f8161c191681555b5050505050600190811b01905550565b604081526000612676604083018561213e565b90508260208301529392505050565b60208082526022908201527f4f6e6c79206f776e65722063616e20706572666f726d2074686973206163746960408201526137b760f11b606082015260800190565b634e487b7160e01b600052603260045260246000fd5b6000600182016126fd57634e487b7160e01b600052601160045260246000fd5b506001019056fea26469706673582212203ddea54ccf69752c4c72516135c3597a42c0f964d6215f53e8bf87ffc4e3c7ce64736f6c63430008130033",
  "linkReferences": {},
  "deployedLinkReferences": {}
}